:1000000009C016C015C014C013C012C011C010C062
:100010000FC00FC011241FBECFE9CDBF10E0A0E676
:10002000B0E001C01D92A336B107E1F72ED0AEC0FB
:10003000E7CF1F920F920FB60F9211242F935F9369
:100040006F937F938F939F93AF93BF9320916100A2
:1000500085B190E067E070E054D061E570E06FD06A
:10006000260F20936100809162008F5F8093620071
:10007000BF91AF919F918F917F916F915F912F91E0
:100080000F900FBE0F901F9018958BE187BB18BA89
:1000900085B7806185BF389A3E9A3D9A86B18E6851
:1000A00086B9479AA29A369A7894C49A8091610048
:1000B0008F5F80936100369A8FEF96E7A1E08150C1
:1000C0009040A040E1F700C00000809162008B30BA
:1000D00058F0809161006091620025D080936000AB
:1000E000109262001092610080916000853018F7D4
:1000F000809161008823F9F6C49885B7806285BF36
:10010000DACF5527002480FF02C0060E571F660F66
:10011000771F6115710521F096958795009799F7DE
:10012000952F802D0895991B79E004C0991F96178B
:1001300008F0961B881F7A95C9F78095089597FB5C
:10014000092E07260AD077FD04D00CD006D0002057
:100150001AF4709561957F4F0895F6F79095819503
:100160009F4F0895AA1BBB1B51E107C0AA1FBB1FCD
:10017000A617B70710F0A61BB70B881F991F5A9533
:10018000A9F780959095BC01CD010895F894FFCF13
:00000001FF
